0000112345678901JOAO           SILVA               1234abcd+00000000150050S0000000005000000012
0000298765432100MARIA          SANTOS              pwd98765+00000000000000N0000000010000000000
0000345678912344CARLOS         OLIVEIRA            ch@ngeMe-00000000025075S0000000002000000045
0000478912345655ANA            SOUZA               ana2026!+00000005230000N0000000080000000120
0000532165498711LUIZ           FERNANDES           luiz#99 +00000000012000N0000000001500000003
0000665498732122JULIANA        LIMA                july@123+00000000340080N0000000030000000027
0000715975346800PEDRO          ROCHA               pete9988-00000000115000S0000000005000000019
0000875315984611ALINE          COSTA               ali_pass+00000000004510N0000000008000000002
0000985296374133FERNANDO       GOMES               fer#2026+00000001285000S0000000250000000214
0001096385214744PATRICIA       ALVES               paty_top+00000000098025N0000000040000000008
0001114725836955RICARDO        MELO                ric_melo+00000000000000N0000000015000000000
0001236925814766CAMILA         BARROS              cami&bar+00000000421090N0000000050000000056
0001325836914777ROBERTO        RIBEIRO             beto8899-00000000005520S0000000002000000011
0001412312312388BEATRIZ        MARTINS             bia_mar1+00000002150000N0000000150000000095
0001532132132199MARCELO        TEIXEIRA            celo_txt+00000000001535N0000000005000000004